{
  "address": "0x9fE46736679d2D9a65F0992F2272dE9f3c7fa6e0",
  "abi": [
    {
      "inputs": [],
      "stateMutability": "nonpayable",
      "type": "constructor"
    },
    {
      "inputs": [
        {
          "internalType": "address",
          "name": "",
          "type": "address"
        }
      ],
      "name": "balances",
      "outputs": [
        {
          "internalType": "uint256",
          "name": "",
          "type": "uint256"
        }
      ],
      "stateMutability": "view",
      "type": "function"
    },
    {
      "inputs": [],
      "name": "message",
      "outputs": [
        {
          "internalType": "string",
          "name": "",
          "type": "string"
        }
      ],
      "stateMutability": "view",
      "type": "function"
    },
    {
      "inputs": [],
      "name": "owner",
      "outputs": [
        {
          "internalType": "address",
          "name": "",
          "type": "address"
        }
      ],
      "stateMutability": "view",
      "type": "function"
    },
    {
      "inputs": [
        {
          "internalType": "string",
          "name": "_message",
          "type": "string"
        }
      ],
      "name": "pay",
      "outputs": [],
      "stateMutability": "payable",
      "type": "function"
    },
    {
      "inputs": [
        {
          "internalType": "address",
          "name": "_to",
          "type": "address"
        }
      ],
      "name": "transferOwnership",
      "outputs": [],
      "stateMutability": "nonpayable",
      "type": "function"
    }
  ],
  "transactionHash": "0xc18de91909a952a933ea1193a2eda7aeb1b531a80601818f87245ce8c0adc10f",
  "args": [],
  "numDeployments": 1,
  "solcInputHash": "83d8e99d271dba1f6498bf770fe2c577",
  "bytecode": "0x608060405234801561001057600080fd5b5033600260006101000a81548173ffffffffffffffffffffffffffffffffffffffff021916908373ffffffffffffffffffffffffffffffffffffffff1602179055506108e8806100616000396000f3fe60806040526004361061004a5760003560e01c806327e235e31461004f5780632b66d72e1461008c5780638da5cb5b146100a8578063e21f37ce146100d3578063f2fde38b146100fe575b600080fd5b34801561005b57600080fd5b50610076600480360381019061007191906103ad565b610127565b60405161008391906103f3565b60405180910390f35b6100a660048036038101906100a19190610473565b61013f565b005b3480156100b457600080fd5b506100bd6101f3565b6040516100ca91906104cf565b60405180910390f35b3480156100df57600080fd5b506100e8610219565b6040516100f5919061057a565b60405180910390f35b34801561010a57600080fd5b50610125600480360381019061012091906103ad565b6102a7565b005b60016020528060005260406000206000915090505481565b600260009054906101000a900473ffffffffffffffffffffffffffffffffffffffff1673ffffffffffffffffffffffffffffffffffffffff163373ffffffffffffffffffffffffffffffffffffffff161461019957600080fd5b8181600091826101aa9291906107e2565b5034600160003373ffffffffffffffffffffffffffffffffffffffff1673ffffffffffffffffffffffffffffffffffffffff168152602001908152602001600020819055505050565b600260009054906101000a900473ffffffffffffffffffffffffffffffffffffffff1681565b6000805461022690610605565b80601f016020809104026020016040519081016040528092919081815260200182805461025290610605565b801561029f5780601f106102745761010080835404028352916020019161029f565b820191906000526020600020905b81548152906001019060200180831161028257829003601f168201915b505050505081565b600260009054906101000a900473ffffffffffffffffffffffffffffffffffffffff1673ffffffffffffffffffffffffffffffffffffffff163373ffffffffffffffffffffffffffffffffffffffff161461030157600080fd5b80600260006101000a81548173ffffffffffffffffffffffffffffffffffffffff021916908373ffffffffffffffffffffffffffffffffffffffff16021790555050565b600080fd5b600080fd5b600073ffffffffffffffffffffffffffffffffffffffff82169050919050565b600061037a8261034f565b9050919050565b61038a8161036f565b811461039557600080fd5b50565b6000813590506103a781610381565b92915050565b6000602082840312156103c3576103c2610345565b5b60006103d184828501610398565b91505092915050565b6000819050919050565b6103ed816103da565b82525050565b600060208201905061040860008301846103e4565b92915050565b600080fd5b600080fd5b600080fd5b60008083601f8401126104335761043261040e565b5b8235905067ffffffffffffffff8111156104505761044f610413565b5b60208301915083600182028301111561046c5761046b610418565b5b9250929050565b6000806020838503121561048a57610489610345565b5b600083013567ffffffffffffffff8111156104a8576104a761034a565b5b6104b48582860161041d565b92509250509250929050565b6104c98161036f565b82525050565b60006020820190506104e460008301846104c0565b92915050565b600081519050919050565b600082825260208201905092915050565b60005b83811015610524578082015181840152602081019050610509565b60008484015250505050565b6000601f19601f8301169050919050565b600061054c826104ea565b61055681856104f5565b9350610566818560208601610506565b61056f81610530565b840191505092915050565b600060208201905081810360008301526105948184610541565b905092915050565b600082905092915050565b7f4e487b7100000000000000000000000000000000000000000000000000000000600052604160045260246000fd5b7f4e487b7100000000000000000000000000000000000000000000000000000000600052602260045260246000fd5b6000600282049050600182168061061d57607f821691505b6020821081036106305761062f6105d6565b5b50919050565b60008190508160005260206000209050919050565b60006020601f8301049050919050565b600082821b905092915050565b6000600883026106987fffffffffffffffffffffffffffffffffffffffffffffffffffffffffffffffff8261065b565b6106a2868361065b565b95508019841693508086168417925050509392505050565b6000819050919050565b60006106df6106da6106d5846103da565b6106ba565b6103da565b9050919050565b6000819050919050565b6106f9836106c4565b61070d610705826106e6565b848454610668565b825550505050565b600090565b610722610715565b61072d8184846106f0565b505050565b5b818110156107515761074660008261071a565b600181019050610733565b5050565b601f8211156107965761076781610636565b6107708461064b565b8101602085101561077f578190505b61079361078b8561064b565b830182610732565b50505b505050565b600082821c905092915050565b60006107b96000198460080261079b565b1980831691505092915050565b60006107d283836107a8565b9150826002028217905092915050565b6107ec838361059c565b67ffffffffffffffff811115610805576108046105a7565b5b61080f8254610605565b61081a828285610755565b6000601f8311600181146108495760008415610837578287013590505b61084185826107c6565b8655506108a9565b601f19841661085786610636565b60005b8281101561087f5784890135825560018201915060208501945060208101905061085a565b8683101561089c5784890135610898601f8916826107a8565b8355505b6001600288020188555050505b5050505050505056fea2646970667358221220230206ce463eb9c45fb808706acbba4c03248e9db6fdde7328a2e589d7bdda6864736f6c63430008120033",
  "devdoc": {
    "kind": "dev",
    "methods": {},
    "version": 1
  },
  "userdoc": {
    "kind": "user",
    "methods": {},
    "version": 1
  },
  "storageLayout": {
    "storage": [
      {
        "astId": 3,
        "contract": "contracts/Demo.sol:Demo",
        "label": "message",
        "offset": 0,
        "slot": "0",
        "type": "t_string_storage"
      },
      {
        "astId": 7,
        "contract": "contracts/Demo.sol:Demo",
        "label": "balances",
        "offset": 0,
        "slot": "1",
        "type": "t_mapping(t_address,t_uint256)"
      },
      {
        "astId": 9,
        "contract": "contracts/Demo.sol:Demo",
        "label": "owner",
        "offset": 0,
        "slot": "2",
        "type": "t_address"
      }
    ],
    "types": {
      "t_address": {
        "encoding": "inplace",
        "label": "address",
        "numberOfBytes": "20"
      },
      "t_mapping(t_address,t_uint256)": {
        "encoding": "mapping",
        "key": "t_address",
        "label": "mapping(address => uint256)",
        "numberOfBytes": "32",
        "value": "t_uint256"
      },
      "t_string_storage": {
        "encoding": "bytes",
        "label": "string",
        "numberOfBytes": "32"
      },
      "t_uint256": {
        "encoding": "inplace",
        "label": "uint256",
        "numberOfBytes": "32"
      }
    }
  }
}